:100000000C9452000C9400000C9400000C9400001E
:100010000C9400000C9400000C9400000C94000060
:100020000C9400000C9400000C9400000C94000050
:100030000C9400000C9400000C9400000C94000040
:100040000C9400000C9400000C9400000C94000030
:040050000C9400000C
:1000A400BFE5BDBFB8E0BEBF0E941A022F923F92C7
:1000B400BFEFBABBB8E1BAB9B6E8B0BDB3E3B9B9FA
:1000C400B0E0B7BBB3E82B2EB1E03B2ED3DFBDE0ED
:1000D4002B2EBEDFBAE02B2EBBDFB4E72B2EB1E014
:1000E4003B2EC8DFBDE02B2EB3DFBAE02B2EB0DFF2
:1000F400B6E62B2EB1E03B2EBDDFBDE02B2EA8DFF4
:10010400BAE02B2EA5DFAADF0093BD01013309F06D
:1001140042C0BCEA2B2EB1E03B2EACDFBDE02B2E5F
:1001240097DFBAE02B2E94DFBCE82B2EB1E03B2EF8
:10013400A1DFBDE02B2E8CDFBAE02B2E89DFBAE5E0
:100144002B2EB1E03B2E96DFBDE02B2E81DFBAE0F3
:100154002B2E7EDFB4EA2B2EB0E03B2E8BDFBDE0EE
:100164002B2E76DFBAE02B2E73DFB1EB2B2EB0E013
:100174003B2E80DFBDE02B2E6BDFBAE02B2E68DF39
:10018400BFEB2B2EB0E03B2E75DFBDE02B2E60DFE6
:10019400BAE02B2E5DDF0091BD01013309F059C097
:1001A4005DDF0093BC01B0E62B2EB0E03B2E62DF96
:1001B4002090BC014DDFBDE02B2E4ADFBAE02B2E90
:1001C40047DF0091BC01063441F4B5E0BBBBB1E7A5
:1001D4002B2EB0E03B2E4EDF3BC00091BC0102341D
:1001E40041F4BAE0BBBBBAE82B2EB0E03B2E42DFB1
:1001F4002FC00091BC010C3499F4BEEC2B2EB0E05E
:100204003B2E38DFB6E0BBBB29E216E900E80A95CD
:10021400F1F71A95E1F72A95D1F7B5E0BBBB18C001
:100224000091BC01023599F4B8E22B2EB1E03B2ECB
:1002340021DFB9E0BBBB29E216E900E80A95F1F732
:100244001A95E1F72A95D1F7B5E0BBBB01C03FC0D1
:100254003DC0BFE32B2EB1E03B2E0CDFB5E0BBBBB2
:100264000BB105FD33C0B6B3B4FF07C0BAE42B2EFF
:10027400B1E03B2EFFDEB0E0BBBBB6B3B0FD07C0C0
:10028400B9E12B2EB1E03B2EF5DEB0E0BBBBB6B33B
:10029400B1FF07C0B4EE2B2EB0E03B2EEBDEB0E096
:1002A400BBBBB6B3B2FF07C0B6EF2B2EB0E03B2EFC
:1002B400E1DEB0E0BBBBB6B3B3FF07C0B7E02B2EA3
:1002C400B1E03B2ED7DEB0E0BBBBCACF64CF3F90DA
:0402D4002F90FFCF99
:10007800F1010081002369F0F10100813F922F9284
:10008800202EE4DF2F903F9081010F5F1F4F180152
:0C009800EFCF0BB105FD01C0FCCF0895B7
:0C0054000BB105FD01C0FCCF2CB80895D5
:0E0060000BB107FD01C0FCCF1CB1012F0895AC
:0A006E0005900D920197E1F7089547
:10043400A0E6B0E0E8EDF2E08CE591E00E94370040
:02044400089519
:1002D800596F757220636F6E74726F6C206973202A
:0102E8000015
:1002E900466F727761726420636F6D6D616E642011
:0902F900726563656976656400B5
:100302004261636B776F726420636F6D6D616E64BF
:0A031200207265636569766564007A
:0D031C0042202D204261636B776172640006
:0E0329004C202D204C656674205475726E00B9
:0F03370052202D205269676874205475726E0031
:100346004C65667420636F6D6D616E6420726563C3
:0603560065697665640094
:10035C004F62737461636C6520696E2066726F6E98
:02036C0074001B
:10036E004F62737461636C65206F6E206C6566748A
:01037E00007E
:10037F004F62737461636C65206F6E20726967687A
:02038F007400F8
:0F039100596F752061726520756E736166650026
:1003A000526967687420636F6D6D616E6420726559
:0703B00063656976656400D6
:0B03B700426C696E64206D6F6465008D
:1003C2005374616972732044657465637465640073
:0C03D20046203A20466F7277617264008A
:0E03DE00322E2057686974652043616E6500F9
:0F03EC00312E20526F626F74696320546F790055
:0903FB0047726F7570203230006A
:1004040020202020202020202020202020202020E8
:1004140020202020202020436F6E74726F6C7300A4
:10042400546F79204D6F646520416374697665006B
:00000001FF
